:020000040800F2
:10000000180400209D010008C5010008C701000870
:10001000CB010008CF010008D30100080000000058
:10002000000000000000000000000000D7010008F0
:10003000D901000800000000DB010008DD01000814
:10004000B7010008B7010008B7010008B7010008B0
:10005000B7010008B7010008B7010008B7010008A0
:10006000B7010008B7010008B7010008B701000890
:10007000B7010008B7010008B7010008B701000880
:10008000B7010008B7010008B7010008B701000870
:10009000B7010008B7010008B7010008B701000860
:1000A000B7010008B7010008B7010008B701000850
:1000B000F1010008B7010008B7010008B701000806
:1000C000B7010008B7010008B7010008B701000830
:1000D000B7010008B7010008B7010008B701000820
:1000E000B7010008B7010008B7010008B701000810
:1000F000B7010008B7010008B7010008B701000800
:10010000B7010008B701000809020008B70100089C
:10011000B7010008B7010008B7010008B7010008DF
:10012000B7010008B7010008B7010008B7010008CF
:10013000B7010008B7010008B7010008B7010008BF
:10014000B7010008B7010008B7010008B7010008AF
:10015000B7010008B7010008B7010008B70100089F
:10016000B7010008B7010008B7010008B70100088F
:10017000B7010008B7010008B7010008B70100087F
:10018000B7010008B7010008DFF80CD000F05CF9F7
:1001900000480047C10100081804002006488047B5
:1001A00006480047FEE7FEE7FEE7FEE7FEE7FEE75C
:1001B000FEE7FEE7FEE7FEE71503000889010008F9
:1001C00000BFFEE7704700BFFEE700BFFEE700BFCD
:1001D000FEE700BFFEE7704770477047704713485F
:1001E000008A1248008A20F00100104908827047F6
:1001F0004FF08040008A4FF08040008A20F00100DC
:100200004FF08041088270470948008808480088FC
:1002100020F001000649088070470648008805481C
:10022000008820F001000349088070470000014069
:10023000100C0040100401400CB50020019000900B
:100240007648006840F480307449086000BF734805
:10025000006800F4003000900198401C0190009864
:1002600018B90198B0F5A04FF1D16C48006800F4BE
:10027000003010B10120009001E0002000900098B3
:10028000012846D165484030006840F080506349FD
:10029000403108606248006840F4404060490860AE
:1002A0005E48083000685D4908310860084600680B
:1002B00040F4004008600846006840F4A050086020
:1002C0005848091F0860081F006840F08070091F27
:1002D000086000BF5148006800F000700028F9D0A5
:1002E00040F20570504908604C480830006820F022
:1002F00003004A49083108600846006840F00200DF
:10030000086000BF45480830006800F00C0008286D
:10031000F8D10CBD10B54548006840F47000434961
:1003200008603E48006840F001003C490860002039
:100330003A4908310860394800683D490840374962
:1003400008603C48091D0860081F006820F48020F0
:10035000091F0860002031490C310860FFF76CFF6D
:100360004FF0006031498039086010BD70B5002041
:100370000022022300240221284D08352D6805F0B3
:100380000C0020B1042806D0082834D107E02A4DFB
:100390002A4E356033E02A4D284E35602FE01F4D40
:1003A0002D1D2D68C5F380541C4D2D1D2D6805F0A5
:1003B0003F0154B1224DB5FBF1F5184E361D36689C
:1003C000C6F3881605FB06F209E01B4DB5FBF1F5F7
:1003D000124E361D3668C6F3881605FB06F20F4D21
:1003E0002D1D2D68C5F301456D1C6B00B2FBF3F5A7
:1003F000124E356003E0104D104E356000BF00BF57
:10040000064D08352D68C5F303150E4E705D0B4D76
:100410002D68C540094E356070BD000000380240AF
:100420000070004008544007003C024088ED00E0A6
:10043000FFFFF6FE103000240024F400000000202E
:1004400000127A0004000020064C074D06E0E06828
:1004500040F0010394E8070098471034AC42F6D30B
:10046000FFF796FE8C040008AC04000802E008C800
:10047000121F08C1002AFAD170477047002001E01E
:1004800001C1121F002AFBD170470000AC04000814
:1004900000000020140000006C040008C0040008E4
:1004A00014000020040400007C040008007A030A01
:1004B0000000000000000000010203040607080914
:040000050800018965
:00000001FF
